{
  "contracts/Campaign.sol": {
    "Campaign": {
      "abi": [
        {
          "inputs": [
            {
              "internalType": "string",
              "name": "_campaignName",
              "type": "string"
            },
            {
              "internalType": "string",
              "name": "_campaignDescription",
              "type": "string"
            }
          ],
          "stateMutability": "nonpayable",
          "type": "constructor"
        },
        {
          "anonymous": false,
          "inputs": [
            {
              "indexed": false,
              "internalType": "string",
              "name": "newDescription",
              "type": "string"
            }
          ],
          "name": "CampaignDescriptionUpdated",
          "type": "event"
        },
        {
          "anonymous": false,
          "inputs": [
            {
              "indexed": false,
              "internalType": "string",
              "name": "newName",
              "type": "string"
            }
          ],
          "name": "CampaignNameUpdated",
          "type": "event"
        },
        {
          "inputs": [],
          "name": "campaignDescription",
          "outputs": [
            {
              "internalType": "string",
              "name": "",
              "type": "string"
            }
          ],
          "stateMutability": "view",
          "type": "function"
        },
        {
          "inputs": [],
          "name": "campaignName",
          "outputs": [
            {
              "internalType": "string",
              "name": "",
              "type": "string"
            }
          ],
          "stateMutability": "view",
          "type": "function"
        },
        {
          "inputs": [],
          "name": "createdAt",
          "outputs": [
            {
              "internalType": "uint256",
              "name": "",
              "type": "uint256"
            }
          ],
          "stateMutability": "view",
          "type": "function"
        },
        {
          "inputs": [],
          "name": "owner",
          "outputs": [
            {
              "internalType": "address",
              "name": "",
              "type": "address"
            }
          ],
          "stateMutability": "view",
          "type": "function"
        },
        {
          "inputs": [
            {
              "internalType": "string",
              "name": "_newDescription",
              "type": "string"
            }
          ],
          "name": "setCampaignDescription",
          "outputs": [],
          "stateMutability": "nonpayable",
          "type": "function"
        },
        {
          "inputs": [
            {
              "internalType": "string",
              "name": "_newName",
              "type": "string"
            }
          ],
          "name": "setCampaignName",
          "outputs": [],
          "stateMutability": "nonpayable",
          "type": "function"
        }
      ],
      "evm": {
        "bytecode": {
          "linkReferences": {},
          "object": "608060405234801561001057600080fd5b50604051610ff0380380610ff083398181016040528101906100329190610215565b336000806101000a81548173ffffffffffffffffffffffffffffffffffffffff021916908373ffffffffffffffffffffffffffffffffffffffff160217905550816001908161008191906104ae565b50806002908161009191906104ae565b50426003819055505050610580565b6000604051905090565b600080fd5b600080fd5b600080fd5b600080fd5b6000601f19601f8301169050919050565b7f4e487b7100000000000000000000000000000000000000000000000000000000600052604160045260246000fd5b610107826100be565b810181811067ffffffffffffffff82111715610126576101256100cf565b5b80604052505050565b60006101396100a0565b905061014582826100fe565b919050565b600067ffffffffffffffff821115610165576101646100cf565b5b61016e826100be565b9050602081019050919050565b60005b8381101561019957808201518184015260208101905061017e565b60008484015250505050565b60006101b86101b38461014a565b61012f565b9050828152602081018484840111156101d4576101d36100b9565b5b6101df84828561017b565b509392505050565b600082601f8301126101fc576101fb6100b4565b5b815161020c8482602086016101a5565b91505092915050565b6000806040838503121561022c5761022b6100aa565b5b600083015167ffffffffffffffff81111561024a576102496100af565b5b610256858286016101e7565b925050602083015167ffffffffffffffff811115610277576102766100af565b5b610283858286016101e7565b9150509250929050565b600081519050919050565b7f4e487b7100000000000000000000000000000000000000000000000000000000600052602260045260246000fd5b600060028204905060018216806102df57607f821691505b6020821081036102f2576102f1610298565b5b50919050565b60008190508160005260206000209050919050565b60006020601f8301049050919050565b600082821b905092915050565b60006008830261035a7fffffffffffffffffffffffffffffffffffffffffffffffffffffffffffffffff8261031d565b610364868361031d565b95508019841693508086168417925050509392505050565b6000819050919050565b6000819050919050565b60006103ab6103a66103a18461037c565b610386565b61037c565b9050919050565b6000819050919050565b6103c583610390565b6103d96103d1826103b2565b84845461032a565b825550505050565b600090565b6103ee6103e1565b6103f98184846103bc565b505050565b5b8181101561041d576104126000826103e6565b6001810190506103ff565b5050565b601f82111561046257610433816102f8565b61043c8461030d565b8101602085101561044b578190505b61045f6104578561030d565b8301826103fe565b50505b505050565b600082821c905092915050565b600061048560001984600802610467565b1980831691505092915050565b600061049e8383610474565b9150826002028217905092915050565b6104b78261028d565b67ffffffffffffffff8111156104d0576104cf6100cf565b5b6104da82546102c7565b6104e5828285610421565b600060209050601f8311600181146105185760008415610506578287015190505b6105108582610492565b865550610578565b601f198416610526866102f8565b60005b8281101561054e57848901518255600182019150602085019450602081019050610529565b8683101561056b5784890151610567601f891682610474565b8355505b6001600288020188555050505b505050505050565b610a618061058f6000396000f3fe608060405234801561001057600080fd5b50600436106100625760003560e01c80630724fda914610067578063110842cb14610085578063798fcc5d146100a35780638da5cb5b146100bf578063a920defd146100dd578063cf09e0d0146100f9575b600080fd5b61006f610117565b60405161007c919061049d565b60405180910390f35b61008d6101a5565b60405161009a919061049d565b60405180910390f35b6100bd60048036038101906100b89190610608565b610233565b005b6100c761030b565b6040516100d49190610692565b60405180910390f35b6100f760048036038101906100f29190610608565b61032f565b005b610101610407565b60405161010e91906106c6565b60405180910390f35b6001805461012490610710565b80601f016020809104026020016040519081016040528092919081815260200182805461015090610710565b801561019d5780601f106101725761010080835404028352916020019161019d565b820191906000526020600020905b81548152906001019060200180831161018057829003601f168201915b505050505081565b600280546101b290610710565b80601f01602080910402602001604051908101604052809291908181526020018280546101de90610710565b801561022b5780601f106102005761010080835404028352916020019161022b565b820191906000526020600020905b81548152906001019060200180831161020e57829003601f168201915b505050505081565b60008054906101000a900473ffffffffffffffffffffffffffffffffffffffff1673ffffffffffffffffffffffffffffffffffffffff163373ffffffffffffffffffffffffffffffffffffffff16146102c1576040517f08c379a00000000000000000000000000000000000000000000000000000000081526004016102b89061078d565b60405180910390fd5b80600290816102d09190610959565b507f500a8453b20cd5e435daf381122941edef2d439af50479ac38ea67437a94163f81604051610300919061049d565b60405180910390a150565b60008054906101000a900473ffffffffffffffffffffffffffffffffffffffff1681565b60008054906101000a900473ffffffffffffffffffffffffffffffffffffffff1673ffffffffffffffffffffffffffffffffffffffff163373ffffffffffffffffffffffffffffffffffffffff16146103bd576040517f08c379a00000000000000000000000000000000000000000000000000000000081526004016103b49061078d565b60405180910390fd5b80600190816103cc9190610959565b507f882b8107062330742c945fb3330cd9a03ad6ec00f7a2dcdf3b6d90150e897df1816040516103fc919061049d565b60405180910390a150565b60035481565b600081519050919050565b600082825260208201905092915050565b60005b8381101561044757808201518184015260208101905061042c565b60008484015250505050565b6000601f19601f8301169050919050565b600061046f8261040d565b6104798185610418565b9350610489818560208601610429565b61049281610453565b840191505092915050565b600060208201905081810360008301526104b78184610464565b905092915050565b6000604051905090565b600080fd5b600080fd5b600080fd5b600080fd5b7f4e487b7100000000000000000000000000000000000000000000000000000000600052604160045260246000fd5b61051582610453565b810181811067ffffffffffffffff82111715610534576105336104dd565b5b80604052505050565b60006105476104bf565b9050610553828261050c565b919050565b600067ffffffffffffffff821115610573576105726104dd565b5b61057c82610453565b9050602081019050919050565b82818337600083830152505050565b60006105ab6105a684610558565b61053d565b9050828152602081018484840111156105c7576105c66104d8565b5b6105d2848285610589565b509392505050565b600082601f8301126105ef576105ee6104d3565b5b81356105ff848260208601610598565b91505092915050565b60006020828403121561061e5761061d6104c9565b5b600082013567ffffffffffffffff81111561063c5761063b6104ce565b5b610648848285016105da565b91505092915050565b600073ffffffffffffffffffffffffffffffffffffffff82169050919050565b600061067c82610651565b9050919050565b61068c81610671565b82525050565b60006020820190506106a76000830184610683565b92915050565b6000819050919050565b6106c0816106ad565b82525050565b60006020820190506106db60008301846106b7565b92915050565b7f4e487b7100000000000000000000000000000000000000000000000000000000600052602260045260246000fd5b6000600282049050600182168061072857607f821691505b60208210810361073b5761073a6106e1565b5b50919050565b7f4e6f742074686520636f6e7472616374206f776e657200000000000000000000600082015250565b6000610777601683610418565b915061078282610741565b602082019050919050565b600060208201905081810360008301526107a68161076a565b9050919050565b60008190508160005260206000209050919050565b60006020601f8301049050919050565b600082821b905092915050565b60006008830261080f7fffffffffffffffffffffffffffffffffffffffffffffffffffffffffffffffff826107d2565b61081986836107d2565b95508019841693508086168417925050509392505050565b6000819050919050565b600061085661085161084c846106ad565b610831565b6106ad565b9050919050565b6000819050919050565b6108708361083b565b61088461087c8261085d565b8484546107df565b825550505050565b600090565b61089961088c565b6108a4818484610867565b505050565b5b818110156108c8576108bd600082610891565b6001810190506108aa565b5050565b601f82111561090d576108de816107ad565b6108e7846107c2565b810160208510156108f6578190505b61090a610902856107c2565b8301826108a9565b50505b505050565b600082821c905092915050565b600061093060001984600802610912565b1980831691505092915050565b6000610949838361091f565b9150826002028217905092915050565b6109628261040d565b67ffffffffffffffff81111561097b5761097a6104dd565b5b6109858254610710565b6109908282856108cc565b600060209050601f8311600181146109c357600084156109b1578287015190505b6109bb858261093d565b865550610a23565b601f1984166109d1866107ad565b60005b828110156109f9578489015182556001820191506020850194506020810190506109d4565b86831015610a165784890151610a12601f89168261091f565b8355505b6001600288020188555050505b50505050505056fea2646970667358221220fed6c1ab088d6a7b10bd492a0e22b4e41ac86624db3878f4a1a5a38ac38aaafa64736f6c634300081b0033",
          "opcodes": "PUSH1 0x80 PUSH1 0x40 MSTORE CALLVALUE DUP1 ISZERO PUSH2 0x10 JUMPI PUSH1 0x0 DUP1 REVERT JUMPDEST POP PUSH1 0x40 MLOAD PUSH2 0xFF0 CODESIZE SUB DUP1 PUSH2 0xFF0 DUP4 CODECOPY DUP2 DUP2 ADD PUSH1 0x40 MSTORE DUP2 ADD SWAP1 PUSH2 0x32 SWAP2 SWAP1 PUSH2 0x215 JUMP JUMPDEST CALLER PUSH1 0x0 DUP1 PUSH2 0x100 EXP DUP2 SLOAD DUP2 PUSH20 0xFFFFFFFFFFFFFFFFFFFFFFFFFFFFFFFFFFFFFFFF MUL NOT AND SWAP1 DUP4 PUSH20 0xFFFFFFFFFFFFFFFFFFFFFFFFFFFFFFFFFFFFFFFF AND MUL OR SWAP1 SSTORE POP DUP2 PUSH1 0x1 SWAP1 DUP2 PUSH2 0x81 SWAP2 SWAP1 PUSH2 0x4AE JUMP JUMPDEST POP DUP1 PUSH1 0x2 SWAP1 DUP2 PUSH2 0x91 SWAP2 SWAP1 PUSH2 0x4AE JUMP JUMPDEST POP TIMESTAMP PUSH1 0x3 DUP2 SWAP1 SSTORE POP POP POP PUSH2 0x580 JUMP JUMPDEST PUSH1 0x0 PUSH1 0x40 MLOAD SWAP1 POP SWAP1 JUMP JUMPDEST PUSH1 0x0 DUP1 REVERT JUMPDEST PUSH1 0x0 DUP1 REVERT JUMPDEST PUSH1 0x0 DUP1 REVERT JUMPDEST PUSH1 0x0 DUP1 REVERT JUMPDEST PUSH1 0x0 PUSH1 0x1F NOT PUSH1 0x1F DUP4 ADD AND SWAP1 POP SWAP2 SWAP1 POP JUMP JUMPDEST PUSH32 0x4E487B7100000000000000000000000000000000000000000000000000000000 PUSH1 0x0 MSTORE PUSH1 0x41 PUSH1 0x4 MSTORE PUSH1 0x24 PUSH1 0x0 REVERT JUMPDEST PUSH2 0x107 DUP3 PUSH2 0xBE JUMP JUMPDEST DUP2 ADD DUP2 DUP2 LT PUSH8 0xFFFFFFFFFFFFFFFF DUP3 GT OR ISZERO PUSH2 0x126 JUMPI PUSH2 0x125 PUSH2 0xCF JUMP JUMPDEST JUMPDEST DUP1 PUSH1 0x40 MSTORE POP POP POP JUMP JUMPDEST PUSH1 0x0 PUSH2 0x139 PUSH2 0xA0 JUMP JUMPDEST SWAP1 POP PUSH2 0x145 DUP3 DUP3 PUSH2 0xFE JUMP JUMPDEST SWAP2 SWAP1 POP JUMP JUMPDEST PUSH1 0x0 PUSH8 0xFFFFFFFFFFFFFFFF DUP3 GT ISZERO PUSH2 0x165 JUMPI PUSH2 0x164 PUSH2 0xCF JUMP JUMPDEST JUMPDEST PUSH2 0x16E DUP3 PUSH2 0xBE JUMP JUMPDEST SWAP1 POP PUSH1 0x20 DUP2 ADD SWAP1 POP SWAP2 SWAP1 POP JUMP JUMPDEST PUSH1 0x0 JUMPDEST DUP4 DUP2 LT ISZERO PUSH2 0x199 JUMPI DUP1 DUP3 ADD MLOAD DUP2 DUP5 ADD MSTORE PUSH1 0x20 DUP2 ADD SWAP1 POP PUSH2 0x17E JUMP JUMPDEST PUSH1 0x0 DUP5 DUP5 ADD MSTORE POP POP POP POP JUMP JUMPDEST PUSH1 0x0 PUSH2 0x1B8 PUSH2 0x1B3 DUP5 PUSH2 0x14A JUMP JUMPDEST PUSH2 0x12F JUMP JUMPDEST SWAP1 POP DUP3 DUP2 MSTORE PUSH1 0x20 DUP2 ADD DUP5 DUP5 DUP5 ADD GT ISZERO PUSH2 0x1D4 JUMPI PUSH2 0x1D3 PUSH2 0xB9 JUMP JUMPDEST JUMPDEST PUSH2 0x1DF DUP5 DUP3 DUP6 PUSH2 0x17B JUMP JUMPDEST POP SWAP4 SWAP3 POP POP POP JUMP JUMPDEST PUSH1 0x0 DUP3 PUSH1 0x1F DUP4 ADD SLT PUSH2 0x1FC JUMPI PUSH2 0x1FB PUSH2 0xB4 JUMP JUMPDEST JUMPDEST DUP2 MLOAD PUSH2 0x20C DUP5 DUP3 PUSH1 0x20 DUP7 ADD PUSH2 0x1A5 JUMP JUMPDEST SWAP2 POP POP SWAP3 SWAP2 POP POP JUMP JUMPDEST PUSH1 0x0 DUP1 PUSH1 0x40 DUP4 DUP6 SUB SLT ISZERO PUSH2 0x22C JUMPI PUSH2 0x22B PUSH2 0xAA JUMP JUMPDEST JUMPDEST PUSH1 0x0 DUP4 ADD MLOAD PUSH8 0xFFFFFFFFFFFFFFFF DUP2 GT ISZERO PUSH2 0x24A JUMPI PUSH2 0x249 PUSH2 0xAF JUMP JUMPDEST JUMPDEST PUSH2 0x256 DUP6 DUP3 DUP7 ADD PUSH2 0x1E7 JUMP JUMPDEST SWAP3 POP POP PUSH1 0x20 DUP4 ADD MLOAD PUSH8 0xFFFFFFFFFFFFFFFF DUP2 GT ISZERO PUSH2 0x277 JUMPI PUSH2 0x276 PUSH2 0xAF JUMP JUMPDEST JUMPDEST PUSH2 0x283 DUP6 DUP3 DUP7 ADD PUSH2 0x1E7 JUMP JUMPDEST SWAP2 POP POP SWAP3 POP SWAP3 SWAP1 POP JUMP JUMPDEST PUSH1 0x0 DUP2 MLOAD SWAP1 POP SWAP2 SWAP1 POP JUMP JUMPDEST PUSH32 0x4E487B7100000000000000000000000000000000000000000000000000000000 PUSH1 0x0 MSTORE PUSH1 0x22 PUSH1 0x4 MSTORE PUSH1 0x24 PUSH1 0x0 REVERT JUMPDEST PUSH1 0x0 PUSH1 0x2 DUP3 DIV SWAP1 POP PUSH1 0x1 DUP3 AND DUP1 PUSH2 0x2DF JUMPI PUSH1 0x7F DUP3 AND SWAP2 POP JUMPDEST PUSH1 0x20 DUP3 LT DUP2 SUB PUSH2 0x2F2 JUMPI PUSH2 0x2F1 PUSH2 0x298 JUMP JUMPDEST JUMPDEST POP SWAP2 SWAP1 POP JUMP JUMPDEST PUSH1 0x0 DUP2 SWAP1 POP DUP2 PUSH1 0x0 MSTORE PUSH1 0x20 PUSH1 0x0 KECCAK256 SWAP1 POP SWAP2 SWAP1 POP JUMP JUMPDEST PUSH1 0x0 PUSH1 0x20 PUSH1 0x1F DUP4 ADD DIV SWAP1 POP SWAP2 SWAP1 POP JUMP JUMPDEST PUSH1 0x0 DUP3 DUP3 SHL SWAP1 POP SWAP3 SWAP2 POP POP JUMP JUMPDEST PUSH1 0x0 PUSH1 0x8 DUP4 MUL PUSH2 0x35A PUSH32 0xFFFFFFFFFFFFFFFFFFFFFFFFFFFFFFFFFFFFFFFFFFFFFFFFFFFFFFFFFFFFFFFF DUP3 PUSH2 0x31D JUMP JUMPDEST PUSH2 0x364 DUP7 DUP4 PUSH2 0x31D JUMP JUMPDEST SWAP6 POP DUP1 NOT DUP5 AND SWAP4 POP DUP1 DUP7 AND DUP5 OR SWAP3 POP POP POP SWAP4 SWAP3 POP POP POP JUMP JUMPDEST PUSH1 0x0 DUP2 SWAP1 POP SWAP2 SWAP1 POP JUMP JUMPDEST PUSH1 0x0 DUP2 SWAP1 POP SWAP2 SWAP1 POP JUMP JUMPDEST PUSH1 0x0 PUSH2 0x3AB PUSH2 0x3A6 PUSH2 0x3A1 DUP5 PUSH2 0x37C JUMP JUMPDEST PUSH2 0x386 JUMP JUMPDEST PUSH2 0x37C JUMP JUMPDEST SWAP1 POP SWAP2 SWAP1 POP JUMP JUMPDEST PUSH1 0x0 DUP2 SWAP1 POP SWAP2 SWAP1 POP JUMP JUMPDEST PUSH2 0x3C5 DUP4 PUSH2 0x390 JUMP JUMPDEST PUSH2 0x3D9 PUSH2 0x3D1 DUP3 PUSH2 0x3B2 JUMP JUMPDEST DUP5 DUP5 SLOAD PUSH2 0x32A JUMP JUMPDEST DUP3 SSTORE POP POP POP POP JUMP JUMPDEST PUSH1 0x0 SWAP1 JUMP JUMPDEST PUSH2 0x3EE PUSH2 0x3E1 JUMP JUMPDEST PUSH2 0x3F9 DUP2 DUP5 DUP5 PUSH2 0x3BC JUMP JUMPDEST POP POP POP JUMP JUMPDEST JUMPDEST DUP2 DUP2 LT ISZERO PUSH2 0x41D JUMPI PUSH2 0x412 PUSH1 0x0 DUP3 PUSH2 0x3E6 JUMP JUMPDEST PUSH1 0x1 DUP2 ADD SWAP1 POP PUSH2 0x3FF JUMP JUMPDEST POP POP JUMP JUMPDEST PUSH1 0x1F DUP3 GT ISZERO PUSH2 0x462 JUMPI PUSH2 0x433 DUP2 PUSH2 0x2F8 JUMP JUMPDEST PUSH2 0x43C DUP5 PUSH2 0x30D JUMP JUMPDEST DUP2 ADD PUSH1 0x20 DUP6 LT ISZERO PUSH2 0x44B JUMPI DUP2 SWAP1 POP JUMPDEST PUSH2 0x45F PUSH2 0x457 DUP6 PUSH2 0x30D JUMP JUMPDEST DUP4 ADD DUP3 PUSH2 0x3FE JUMP JUMPDEST POP POP JUMPDEST POP POP POP JUMP JUMPDEST PUSH1 0x0 DUP3 DUP3 SHR SWAP1 POP SWAP3 SWAP2 POP POP JUMP JUMPDEST PUSH1 0x0 PUSH2 0x485 PUSH1 0x0 NOT DUP5 PUSH1 0x8 MUL PUSH2 0x467 JUMP JUMPDEST NOT DUP1 DUP4 AND SWAP2 POP POP SWAP3 SWAP2 POP POP JUMP JUMPDEST PUSH1 0x0 PUSH2 0x49E DUP4 DUP4 PUSH2 0x474 JUMP JUMPDEST SWAP2 POP DUP3 PUSH1 0x2 MUL DUP3 OR SWAP1 POP SWAP3 SWAP2 POP POP JUMP JUMPDEST PUSH2 0x4B7 DUP3 PUSH2 0x28D JUMP JUMPDEST PUSH8 0xFFFFFFFFFFFFFFFF DUP2 GT ISZERO PUSH2 0x4D0 JUMPI PUSH2 0x4CF PUSH2 0xCF JUMP JUMPDEST JUMPDEST PUSH2 0x4DA DUP3 SLOAD PUSH2 0x2C7 JUMP JUMPDEST PUSH2 0x4E5 DUP3 DUP3 DUP6 PUSH2 0x421 JUMP JUMPDEST PUSH1 0x0 PUSH1 0x20 SWAP1 POP PUSH1 0x1F DUP4 GT PUSH1 0x1 DUP2 EQ PUSH2 0x518 JUMPI PUSH1 0x0 DUP5 ISZERO PUSH2 0x506 JUMPI DUP3 DUP8 ADD MLOAD SWAP1 POP JUMPDEST PUSH2 0x510 DUP6 DUP3 PUSH2 0x492 JUMP JUMPDEST DUP7 SSTORE POP PUSH2 0x578 JUMP JUMPDEST PUSH1 0x1F NOT DUP5 AND PUSH2 0x526 DUP7 PUSH2 0x2F8 JUMP JUMPDEST PUSH1 0x0 JUMPDEST DUP3 DUP2 LT ISZERO PUSH2 0x54E JUMPI DUP5 DUP10 ADD MLOAD DUP3 SSTORE PUSH1 0x1 DUP3 ADD SWAP2 POP PUSH1 0x20 DUP6 ADD SWAP5 POP PUSH1 0x20 DUP2 ADD SWAP1 POP PUSH2 0x529 JUMP JUMPDEST DUP7 DUP4 LT ISZERO PUSH2 0x56B JUMPI DUP5 DUP10 ADD MLOAD PUSH2 0x567 PUSH1 0x1F DUP10 AND DUP3 PUSH2 0x474 JUMP JUMPDEST DUP4 SSTORE POP JUMPDEST PUSH1 0x1 PUSH1 0x2 DUP9 MUL ADD DUP9 SSTORE POP POP POP JUMPDEST POP POP POP POP POP POP JUMP JUMPDEST PUSH2 0xA61 DUP1 PUSH2 0x58F PUSH1 0x0 CODECOPY PUSH1 0x0 RETURN INVALID PUSH1 0x80 PUSH1 0x40 MSTORE CALLVALUE DUP1 ISZERO PUSH2 0x10 JUMPI PUSH1 0x0 DUP1 REVERT JUMPDEST POP PUSH1 0x4 CALLDATASIZE LT PUSH2 0x62 JUMPI PUSH1 0x0 CALLDATALOAD PUSH1 0xE0 SHR DUP1 PUSH4 0x724FDA9 EQ PUSH2 0x67 JUMPI DUP1 PUSH4 0x110842CB EQ PUSH2 0x85 JUMPI DUP1 PUSH4 0x798FCC5D EQ PUSH2 0xA3 JUMPI DUP1 PUSH4 0x8DA5CB5B EQ PUSH2 0xBF JUMPI DUP1 PUSH4 0xA920DEFD EQ PUSH2 0xDD JUMPI DUP1 PUSH4 0xCF09E0D0 EQ PUSH2 0xF9 JUMPI JUMPDEST PUSH1 0x0 DUP1 REVERT JUMPDEST PUSH2 0x6F PUSH2 0x117 JUMP JUMPDEST PUSH1 0x40 MLOAD PUSH2 0x7C SWAP2 SWAP1 PUSH2 0x49D JUMP JUMPDEST PUSH1 0x40 MLOAD DUP1 SWAP2 SUB SWAP1 RETURN JUMPDEST PUSH2 0x8D PUSH2 0x1A5 JUMP JUMPDEST PUSH1 0x40 MLOAD PUSH2 0x9A SWAP2 SWAP1 PUSH2 0x49D JUMP JUMPDEST PUSH1 0x40 MLOAD DUP1 SWAP2 SUB SWAP1 RETURN JUMPDEST PUSH2 0xBD PUSH1 0x4 DUP1 CALLDATASIZE SUB DUP2 ADD SWAP1 PUSH2 0xB8 SWAP2 SWAP1 PUSH2 0x608 JUMP JUMPDEST PUSH2 0x233 JUMP JUMPDEST STOP JUMPDEST PUSH2 0xC7 PUSH2 0x30B JUMP JUMPDEST PUSH1 0x40 MLOAD PUSH2 0xD4 SWAP2 SWAP1 PUSH2 0x692 JUMP JUMPDEST PUSH1 0x40 MLOAD DUP1 SWAP2 SUB SWAP1 RETURN JUMPDEST PUSH2 0xF7 PUSH1 0x4 DUP1 CALLDATASIZE SUB DUP2 ADD SWAP1 PUSH2 0xF2 SWAP2 SWAP1 PUSH2 0x608 JUMP JUMPDEST PUSH2 0x32F JUMP JUMPDEST STOP JUMPDEST PUSH2 0x101 PUSH2 0x407 JUMP JUMPDEST PUSH1 0x40 MLOAD PUSH2 0x10E SWAP2 SWAP1 PUSH2 0x6C6 JUMP JUMPDEST PUSH1 0x40 MLOAD DUP1 SWAP2 SUB SWAP1 RETURN JUMPDEST PUSH1 0x1 DUP1 SLOAD PUSH2 0x124 SWAP1 PUSH2 0x710 JUMP JUMPDEST DUP1 PUSH1 0x1F ADD PUSH1 0x20 DUP1 SWAP2 DIV MUL PUSH1 0x20 ADD PUSH1 0x40 MLOAD SWAP1 DUP2 ADD PUSH1 0x40 MSTORE DUP1 SWAP3 SWAP2 SWAP1 DUP2 DUP2 MSTORE PUSH1 0x20 ADD DUP3 DUP1 SLOAD PUSH2 0x150 SWAP1 PUSH2 0x710 JUMP JUMPDEST DUP1 ISZERO PUSH2 0x19D JUMPI DUP1 PUSH1 0x1F LT PUSH2 0x172 JUMPI PUSH2 0x100 DUP1 DUP4 SLOAD DIV MUL DUP4 MSTORE SWAP2 PUSH1 0x20 ADD SWAP2 PUSH2 0x19D JUMP JUMPDEST DUP3 ADD SWAP2 SWAP1 PUSH1 0x0 MSTORE PUSH1 0x20 PUSH1 0x0 KECCAK256 SWAP1 JUMPDEST DUP2 SLOAD DUP2 MSTORE SWAP1 PUSH1 0x1 ADD SWAP1 PUSH1 0x20 ADD DUP1 DUP4 GT PUSH2 0x180 JUMPI DUP3 SWAP1 SUB PUSH1 0x1F AND DUP3 ADD SWAP2 JUMPDEST POP POP POP POP POP DUP2 JUMP JUMPDEST PUSH1 0x2 DUP1 SLOAD PUSH2 0x1B2 SWAP1 PUSH2 0x710 JUMP JUMPDEST DUP1 PUSH1 0x1F ADD PUSH1 0x20 DUP1 SWAP2 DIV MUL PUSH1 0x20 ADD PUSH1 0x40 MLOAD SWAP1 DUP2 ADD PUSH1 0x40 MSTORE DUP1 SWAP3 SWAP2 SWAP1 DUP2 DUP2 MSTORE PUSH1 0x20 ADD DUP3 DUP1 SLOAD PUSH2 0x1DE SWAP1 PUSH2 0x710 JUMP JUMPDEST DUP1 ISZERO PUSH2 0x22B JUMPI DUP1 PUSH1 0x1F LT PUSH2 0x200 JUMPI PUSH2 0x100 DUP1 DUP4 SLOAD DIV MUL DUP4 MSTORE SWAP2 PUSH1 0x20 ADD SWAP2 PUSH2 0x22B JUMP JUMPDEST DUP3 ADD SWAP2 SWAP1 PUSH1 0x0 MSTORE PUSH1 0x20 PUSH1 0x0 KECCAK256 SWAP1 JUMPDEST DUP2 SLOAD DUP2 MSTORE SWAP1 PUSH1 0x1 ADD SWAP1 PUSH1 0x20 ADD DUP1 DUP4 GT PUSH2 0x20E JUMPI DUP3 SWAP1 SUB PUSH1 0x1F AND DUP3 ADD SWAP2 JUMPDEST POP POP POP POP POP DUP2 JUMP JUMPDEST PUSH1 0x0 DUP1 SLOAD SWAP1 PUSH2 0x100 EXP SWAP1 DIV PUSH20 0xFFFFFFFFFFFFFFFFFFFFFFFFFFFFFFFFFFFFFFFF AND PUSH20 0xFFFFFFFFFFFFFFFFFFFFFFFFFFFFFFFFFFFFFFFF AND CALLER PUSH20 0xFFFFFFFFFFFFFFFFFFFFFFFFFFFFFFFFFFFFFFFF AND EQ PUSH2 0x2C1 JUMPI PUSH1 0x40 MLOAD PUSH32 0x8C379A000000000000000000000000000000000000000000000000000000000 DUP2 MSTORE PUSH1 0x4 ADD PUSH2 0x2B8 SWAP1 PUSH2 0x78D JUMP JUMPDEST PUSH1 0x40 MLOAD DUP1 SWAP2 SUB SWAP1 REVERT JUMPDEST DUP1 PUSH1 0x2 SWAP1 DUP2 PUSH2 0x2D0 SWAP2 SWAP1 PUSH2 0x959 JUMP JUMPDEST POP PUSH32 0x500A8453B20CD5E435DAF381122941EDEF2D439AF50479AC38EA67437A94163F DUP2 PUSH1 0x40 MLOAD PUSH2 0x300 SWAP2 SWAP1 PUSH2 0x49D JUMP JUMPDEST PUSH1 0x40 MLOAD DUP1 SWAP2 SUB SWAP1 LOG1 POP JUMP JUMPDEST PUSH1 0x0 DUP1 SLOAD SWAP1 PUSH2 0x100 EXP SWAP1 DIV PUSH20 0xFFFFFFFFFFFFFFFFFFFFFFFFFFFFFFFFFFFFFFFF AND DUP2 JUMP JUMPDEST PUSH1 0x0 DUP1 SLOAD SWAP1 PUSH2 0x100 EXP SWAP1 DIV PUSH20 0xFFFFFFFFFFFFFFFFFFFFFFFFFFFFFFFFFFFFFFFF AND PUSH20 0xFFFFFFFFFFFFFFFFFFFFFFFFFFFFFFFFFFFFFFFF AND CALLER PUSH20 0xFFFFFFFFFFFFFFFFFFFFFFFFFFFFFFFFFFFFFFFF AND EQ PUSH2 0x3BD JUMPI PUSH1 0x40 MLOAD PUSH32 0x8C379A000000000000000000000000000000000000000000000000000000000 DUP2 MSTORE PUSH1 0x4 ADD PUSH2 0x3B4 SWAP1 PUSH2 0x78D JUMP JUMPDEST PUSH1 0x40 MLOAD DUP1 SWAP2 SUB SWAP1 REVERT JUMPDEST DUP1 PUSH1 0x1 SWAP1 DUP2 PUSH2 0x3CC SWAP2 SWAP1 PUSH2 0x959 JUMP JUMPDEST POP PUSH32 0x882B8107062330742C945FB3330CD9A03AD6EC00F7A2DCDF3B6D90150E897DF1 DUP2 PUSH1 0x40 MLOAD PUSH2 0x3FC SWAP2 SWAP1 PUSH2 0x49D JUMP JUMPDEST PUSH1 0x40 MLOAD DUP1 SWAP2 SUB SWAP1 LOG1 POP JUMP JUMPDEST PUSH1 0x3 SLOAD DUP2 JUMP JUMPDEST PUSH1 0x0 DUP2 MLOAD SWAP1 POP SWAP2 SWAP1 POP JUMP JUMPDEST PUSH1 0x0 DUP3 DUP3 MSTORE PUSH1 0x20 DUP3 ADD SWAP1 POP SWAP3 SWAP2 POP POP JUMP JUMPDEST PUSH1 0x0 JUMPDEST DUP4 DUP2 LT ISZERO PUSH2 0x447 JUMPI DUP1 DUP3 ADD MLOAD DUP2 DUP5 ADD MSTORE PUSH1 0x20 DUP2 ADD SWAP1 POP PUSH2 0x42C JUMP JUMPDEST PUSH1 0x0 DUP5 DUP5 ADD MSTORE POP POP POP POP JUMP JUMPDEST PUSH1 0x0 PUSH1 0x1F NOT PUSH1 0x1F DUP4 ADD AND SWAP1 POP SWAP2 SWAP1 POP JUMP JUMPDEST PUSH1 0x0 PUSH2 0x46F DUP3 PUSH2 0x40D JUMP JUMPDEST PUSH2 0x479 DUP2 DUP6 PUSH2 0x418 JUMP JUMPDEST SWAP4 POP PUSH2 0x489 DUP2 DUP6 PUSH1 0x20 DUP7 ADD PUSH2 0x429 JUMP JUMPDEST PUSH2 0x492 DUP2 PUSH2 0x453 JUMP JUMPDEST DUP5 ADD SWAP2 POP POP SWAP3 SWAP2 POP POP JUMP JUMPDEST PUSH1 0x0 PUSH1 0x20 DUP3 ADD SWAP1 POP DUP2 DUP2 SUB PUSH1 0x0 DUP4 ADD MSTORE PUSH2 0x4B7 DUP2 DUP5 PUSH2 0x464 JUMP JUMPDEST SWAP1 POP SWAP3 SWAP2 POP POP JUMP JUMPDEST PUSH1 0x0 PUSH1 0x40 MLOAD SWAP1 POP SWAP1 JUMP JUMPDEST PUSH1 0x0 DUP1 REVERT JUMPDEST PUSH1 0x0 DUP1 REVERT JUMPDEST PUSH1 0x0 DUP1 REVERT JUMPDEST PUSH1 0x0 DUP1 REVERT JUMPDEST PUSH32 0x4E487B7100000000000000000000000000000000000000000000000000000000 PUSH1 0x0 MSTORE PUSH1 0x41 PUSH1 0x4 MSTORE PUSH1 0x24 PUSH1 0x0 REVERT JUMPDEST PUSH2 0x515 DUP3 PUSH2 0x453 JUMP JUMPDEST DUP2 ADD DUP2 DUP2 LT PUSH8 0xFFFFFFFFFFFFFFFF DUP3 GT OR ISZERO PUSH2 0x534 JUMPI PUSH2 0x533 PUSH2 0x4DD JUMP JUMPDEST JUMPDEST DUP1 PUSH1 0x40 MSTORE POP POP POP JUMP JUMPDEST PUSH1 0x0 PUSH2 0x547 PUSH2 0x4BF JUMP JUMPDEST SWAP1 POP PUSH2 0x553 DUP3 DUP3 PUSH2 0x50C JUMP JUMPDEST SWAP2 SWAP1 POP JUMP JUMPDEST PUSH1 0x0 PUSH8 0xFFFFFFFFFFFFFFFF DUP3 GT ISZERO PUSH2 0x573 JUMPI PUSH2 0x572 PUSH2 0x4DD JUMP JUMPDEST JUMPDEST PUSH2 0x57C DUP3 PUSH2 0x453 JUMP JUMPDEST SWAP1 POP PUSH1 0x20 DUP2 ADD SWAP1 POP SWAP2 SWAP1 POP JUMP JUMPDEST DUP3 DUP2 DUP4 CALLDATACOPY PUSH1 0x0 DUP4 DUP4 ADD MSTORE POP POP POP JUMP JUMPDEST PUSH1 0x0 PUSH2 0x5AB PUSH2 0x5A6 DUP5 PUSH2 0x558 JUMP JUMPDEST PUSH2 0x53D JUMP JUMPDEST SWAP1 POP DUP3 DUP2 MSTORE PUSH1 0x20 DUP2 ADD DUP5 DUP5 DUP5 ADD GT ISZERO PUSH2 0x5C7 JUMPI PUSH2 0x5C6 PUSH2 0x4D8 JUMP JUMPDEST JUMPDEST PUSH2 0x5D2 DUP5 DUP3 DUP6 PUSH2 0x589 JUMP JUMPDEST POP SWAP4 SWAP3 POP POP POP JUMP JUMPDEST PUSH1 0x0 DUP3 PUSH1 0x1F DUP4 ADD SLT PUSH2 0x5EF JUMPI PUSH2 0x5EE PUSH2 0x4D3 JUMP JUMPDEST JUMPDEST DUP2 CALLDATALOAD PUSH2 0x5FF DUP5 DUP3 PUSH1 0x20 DUP7 ADD PUSH2 0x598 JUMP JUMPDEST SWAP2 POP POP SWAP3 SWAP2 POP POP JUMP JUMPDEST PUSH1 0x0 PUSH1 0x20 DUP3 DUP5 SUB SLT ISZERO PUSH2 0x61E JUMPI PUSH2 0x61D PUSH2 0x4C9 JUMP JUMPDEST JUMPDEST PUSH1 0x0 DUP3 ADD CALLDATALOAD PUSH8 0xFFFFFFFFFFFFFFFF DUP2 GT ISZERO PUSH2 0x63C JUMPI PUSH2 0x63B PUSH2 0x4CE JUMP JUMPDEST JUMPDEST PUSH2 0x648 DUP5 DUP3 DUP6 ADD PUSH2 0x5DA JUMP JUMPDEST SWAP2 POP POP SWAP3 SWAP2 POP POP JUMP JUMPDEST PUSH1 0x0 PUSH20 0xFFFFFFFFFFFFFFFFFFFFFFFFFFFFFFFFFFFFFFFF DUP3 AND SWAP1 POP SWAP2 SWAP1 POP JUMP JUMPDEST PUSH1 0x0 PUSH2 0x67C DUP3 PUSH2 0x651 JUMP JUMPDEST SWAP1 POP SWAP2 SWAP1 POP JUMP JUMPDEST PUSH2 0x68C DUP2 PUSH2 0x671 JUMP JUMPDEST DUP3 MSTORE POP POP JUMP JUMPDEST PUSH1 0x0 PUSH1 0x20 DUP3 ADD SWAP1 POP PUSH2 0x6A7 PUSH1 0x0 DUP4 ADD DUP5 PUSH2 0x683 JUMP JUMPDEST SWAP3 SWAP2 POP POP JUMP JUMPDEST PUSH1 0x0 DUP2 SWAP1 POP SWAP2 SWAP1 POP JUMP JUMPDEST PUSH2 0x6C0 DUP2 PUSH2 0x6AD JUMP JUMPDEST DUP3 MSTORE POP POP JUMP JUMPDEST PUSH1 0x0 PUSH1 0x20 DUP3 ADD SWAP1 POP PUSH2 0x6DB PUSH1 0x0 DUP4 ADD DUP5 PUSH2 0x6B7 JUMP JUMPDEST SWAP3 SWAP2 POP POP JUMP JUMPDEST PUSH32 0x4E487B7100000000000000000000000000000000000000000000000000000000 PUSH1 0x0 MSTORE PUSH1 0x22 PUSH1 0x4 MSTORE PUSH1 0x24 PUSH1 0x0 REVERT JUMPDEST PUSH1 0x0 PUSH1 0x2 DUP3 DIV SWAP1 POP PUSH1 0x1 DUP3 AND DUP1 PUSH2 0x728 JUMPI PUSH1 0x7F DUP3 AND SWAP2 POP JUMPDEST PUSH1 0x20 DUP3 LT DUP2 SUB PUSH2 0x73B JUMPI PUSH2 0x73A PUSH2 0x6E1 JUMP JUMPDEST JUMPDEST POP SWAP2 SWAP1 POP JUMP JUMPDEST PUSH32 0x4E6F742074686520636F6E7472616374206F776E657200000000000000000000 PUSH1 0x0 DUP3 ADD MSTORE POP JUMP JUMPDEST PUSH1 0x0 PUSH2 0x777 PUSH1 0x16 DUP4 PUSH2 0x418 JUMP JUMPDEST SWAP2 POP PUSH2 0x782 DUP3 PUSH2 0x741 JUMP JUMPDEST PUSH1 0x20 DUP3 ADD SWAP1 POP SWAP2 SWAP1 POP JUMP JUMPDEST PUSH1 0x0 PUSH1 0x20 DUP3 ADD SWAP1 POP DUP2 DUP2 SUB PUSH1 0x0 DUP4 ADD MSTORE PUSH2 0x7A6 DUP2 PUSH2 0x76A JUMP JUMPDEST SWAP1 POP SWAP2 SWAP1 POP JUMP JUMPDEST PUSH1 0x0 DUP2 SWAP1 POP DUP2 PUSH1 0x0 MSTORE PUSH1 0x20 PUSH1 0x0 KECCAK256 SWAP1 POP SWAP2 SWAP1 POP JUMP JUMPDEST PUSH1 0x0 PUSH1 0x20 PUSH1 0x1F DUP4 ADD DIV SWAP1 POP SWAP2 SWAP1 POP JUMP JUMPDEST PUSH1 0x0 DUP3 DUP3 SHL SWAP1 POP SWAP3 SWAP2 POP POP JUMP JUMPDEST PUSH1 0x0 PUSH1 0x8 DUP4 MUL PUSH2 0x80F PUSH32 0xFFFFFFFFFFFFFFFFFFFFFFFFFFFFFFFFFFFFFFFFFFFFFFFFFFFFFFFFFFFFFFFF DUP3 PUSH2 0x7D2 JUMP JUMPDEST PUSH2 0x819 DUP7 DUP4 PUSH2 0x7D2 JUMP JUMPDEST SWAP6 POP DUP1 NOT DUP5 AND SWAP4 POP DUP1 DUP7 AND DUP5 OR SWAP3 POP POP POP SWAP4 SWAP3 POP POP POP JUMP JUMPDEST PUSH1 0x0 DUP2 SWAP1 POP SWAP2 SWAP1 POP JUMP JUMPDEST PUSH1 0x0 PUSH2 0x856 PUSH2 0x851 PUSH2 0x84C DUP5 PUSH2 0x6AD JUMP JUMPDEST PUSH2 0x831 JUMP JUMPDEST PUSH2 0x6AD JUMP JUMPDEST SWAP1 POP SWAP2 SWAP1 POP JUMP JUMPDEST PUSH1 0x0 DUP2 SWAP1 POP SWAP2 SWAP1 POP JUMP JUMPDEST PUSH2 0x870 DUP4 PUSH2 0x83B JUMP JUMPDEST PUSH2 0x884 PUSH2 0x87C DUP3 PUSH2 0x85D JUMP JUMPDEST DUP5 DUP5 SLOAD PUSH2 0x7DF JUMP JUMPDEST DUP3 SSTORE POP POP POP POP JUMP JUMPDEST PUSH1 0x0 SWAP1 JUMP JUMPDEST PUSH2 0x899 PUSH2 0x88C JUMP JUMPDEST PUSH2 0x8A4 DUP2 DUP5 DUP5 PUSH2 0x867 JUMP JUMPDEST POP POP POP JUMP JUMPDEST JUMPDEST DUP2 DUP2 LT ISZERO PUSH2 0x8C8 JUMPI PUSH2 0x8BD PUSH1 0x0 DUP3 PUSH2 0x891 JUMP JUMPDEST PUSH1 0x1 DUP2 ADD SWAP1 POP PUSH2 0x8AA JUMP JUMPDEST POP POP JUMP JUMPDEST PUSH1 0x1F DUP3 GT ISZERO PUSH2 0x90D JUMPI PUSH2 0x8DE DUP2 PUSH2 0x7AD JUMP JUMPDEST PUSH2 0x8E7 DUP5 PUSH2 0x7C2 JUMP JUMPDEST DUP2 ADD PUSH1 0x20 DUP6 LT ISZERO PUSH2 0x8F6 JUMPI DUP2 SWAP1 POP JUMPDEST PUSH2 0x90A PUSH2 0x902 DUP6 PUSH2 0x7C2 JUMP JUMPDEST DUP4 ADD DUP3 PUSH2 0x8A9 JUMP JUMPDEST POP POP JUMPDEST POP POP POP JUMP JUMPDEST PUSH1 0x0 DUP3 DUP3 SHR SWAP1 POP SWAP3 SWAP2 POP POP JUMP JUMPDEST PUSH1 0x0 PUSH2 0x930 PUSH1 0x0 NOT DUP5 PUSH1 0x8 MUL PUSH2 0x912 JUMP JUMPDEST NOT DUP1 DUP4 AND SWAP2 POP POP SWAP3 SWAP2 POP POP JUMP JUMPDEST PUSH1 0x0 PUSH2 0x949 DUP4 DUP4 PUSH2 0x91F JUMP JUMPDEST SWAP2 POP DUP3 PUSH1 0x2 MUL DUP3 OR SWAP1 POP SWAP3 SWAP2 POP POP JUMP JUMPDEST PUSH2 0x962 DUP3 PUSH2 0x40D JUMP JUMPDEST PUSH8 0xFFFFFFFFFFFFFFFF DUP2 GT ISZERO PUSH2 0x97B JUMPI PUSH2 0x97A PUSH2 0x4DD JUMP JUMPDEST JUMPDEST PUSH2 0x985 DUP3 SLOAD PUSH2 0x710 JUMP JUMPDEST PUSH2 0x990 DUP3 DUP3 DUP6 PUSH2 0x8CC JUMP JUMPDEST PUSH1 0x0 PUSH1 0x20 SWAP1 POP PUSH1 0x1F DUP4 GT PUSH1 0x1 DUP2 EQ PUSH2 0x9C3 JUMPI PUSH1 0x0 DUP5 ISZERO PUSH2 0x9B1 JUMPI DUP3 DUP8 ADD MLOAD SWAP1 POP JUMPDEST PUSH2 0x9BB DUP6 DUP3 PUSH2 0x93D JUMP JUMPDEST DUP7 SSTORE POP PUSH2 0xA23 JUMP JUMPDEST PUSH1 0x1F NOT DUP5 AND PUSH2 0x9D1 DUP7 PUSH2 0x7AD JUMP JUMPDEST PUSH1 0x0 JUMPDEST DUP3 DUP2 LT ISZERO PUSH2 0x9F9 JUMPI DUP5 DUP10 ADD MLOAD DUP3 SSTORE PUSH1 0x1 DUP3 ADD SWAP2 POP PUSH1 0x20 DUP6 ADD SWAP5 POP PUSH1 0x20 DUP2 ADD SWAP1 POP PUSH2 0x9D4 JUMP JUMPDEST DUP7 DUP4 LT ISZERO PUSH2 0xA16 JUMPI DUP5 DUP10 ADD MLOAD PUSH2 0xA12 PUSH1 0x1F DUP10 AND DUP3 PUSH2 0x91F JUMP JUMPDEST DUP4 SSTORE POP JUMPDEST PUSH1 0x1 PUSH1 0x2 DUP9 MUL ADD DUP9 SSTORE POP POP POP JUMPDEST POP POP POP POP POP POP JUMP INVALID LOG2 PUSH5 0x6970667358 0x22 SLT KECCAK256 INVALID 0xD6 0xC1 0xAB ADDMOD DUP14 PUSH11 0x7B10BD492A0E22B4E41AC8 PUSH7 0x24DB3878F4A1A5 LOG3 DUP11 0xC3 DUP11 0xAA STATICCALL PUSH5 0x736F6C6343 STOP ADDMOD SHL STOP CALLER "
        },
        "methodIdentifiers": {
          "campaignDescription()": "110842cb",
          "campaignName()": "0724fda9",
          "createdAt()": "cf09e0d0",
          "owner()": "8da5cb5b",
          "setCampaignDescription(string)": "798fcc5d",
          "setCampaignName(string)": "a920defd"
        }
      }
    }
  }
}